{
  "contractName": "Greeting",
  "abi": [
    {
      "inputs": [],
      "name": "greeting",
      "outputs": [
        {
          "internalType": "string",
          "name": "",
          "type": "string"
        }
      ],
      "stateMutability": "view",
      "type": "function",
      "constant": true
    },
    {
      "inputs": [],
      "name": "sayHello",
      "outputs": [
        {
          "internalType": "string",
          "name": "",
          "type": "string"
        }
      ],
      "stateMutability": "view",
      "type": "function",
      "constant": true
    },
    {
      "inputs": [
        {
          "internalType": "string",
          "name": "_greeting",
          "type": "string"
        }
      ],
      "name": "updateGreeting",
      "outputs": [],
      "stateMutability": "nonpayable",
      "type": "function"
    }
  ],
  "bytecode": "0x60806040526040518060400160405280600581526020017f68656c6c6f0000000000000000000000000000000000000000000000000000008152506000908051906020019061004f929190610062565b5034801561005c57600080fd5b50610166565b82805461006e90610105565b90600052602060002090601f01602090048101928261009057600085556100d7565b82601f106100a957805160ff19168380011785556100d7565b828001600101855582156100d7579182015b828111156100d65782518255916020019190600101906100bb565b5b5090506100e491906100e8565b5090565b5b808211156101015760008160009055506001016100e9565b5090565b6000600282049050600182168061011d57607f821691505b6020821081141561013157610130610137565b5b50919050565b7f4e487b7100000000000000000000000000000000000000000000000000000000600052602260045260246000fd5b6104a2806101756000396000f3fe608060405234801561001057600080fd5b506004361061005e576000357c0100000000000000000000000000000000000000000000000000000000900480632867cc4414610063578063ef5fb05b1461007f578063ef690cc01461009d575b600080fd5b61007d600480360381019061007891906102ea565b6100bb565b005b6100876100d1565b6040516100949190610370565b60405180910390f35b6100a5610163565b6040516100b29190610370565b60405180910390f35b8181600091906100cc9291906101f1565b505050565b6060600080546100e0906103e1565b80601f016020809104026020016040519081016040528092919081815260200182805461010c906103e1565b80156101595780601f1061012e57610100808354040283529160200191610159565b820191906000526020600020905b81548152906001019060200180831161013c57829003601f168201915b5050505050905090565b60008054610170906103e1565b80601f016020809104026020016040519081016040528092919081815260200182805461019c906103e1565b80156101e95780601f106101be576101008083540402835291602001916101e9565b820191906000526020600020905b8154815290600101906020018083116101cc57829003601f168201915b505050505081565b8280546101fd906103e1565b90600052602060002090601f01602090048101928261021f5760008555610266565b82601f1061023857803560ff1916838001178555610266565b82800160010185558215610266579182015b8281111561026557823582559160200191906001019061024a565b5b5090506102739190610277565b5090565b5b80821115610290576000816000905550600101610278565b5090565b60008083601f8401126102aa576102a9610447565b5b8235905067ffffffffffffffff8111156102c7576102c6610442565b5b6020830191508360018202830111156102e3576102e261044c565b5b9250929050565b6000806020838503121561030157610300610456565b5b600083013567ffffffffffffffff81111561031f5761031e610451565b5b61032b85828601610294565b92509250509250929050565b600061034282610392565b61034c818561039d565b935061035c8185602086016103ae565b6103658161045b565b840191505092915050565b6000602082019050818103600083015261038a8184610337565b905092915050565b600081519050919050565b600082825260208201905092915050565b60005b838110156103cc5780820151818401526020810190506103b1565b838111156103db576000848401525b50505050565b600060028204905060018216806103f957607f821691505b6020821081141561040d5761040c610413565b5b50919050565b7f4e487b7100000000000000000000000000000000000000000000000000000000600052602260045260246000fd5b600080fd5b600080fd5b600080fd5b600080fd5b600080fd5b6000601f19601f830116905091905056fea26469706673582212203e393cbc89ce9add706d7bbbbce56b9500ece35ab78c36bb93ecf1a06a40be6d64736f6c63430008070033",
  "immutableReferences": {},
  "source": "// SPDX-License-Identifier: MIT\npragma solidity >=0.4.22 <0.9.0;\n\ncontract Greeting {\n    string public greeting = \"hello\";\n\n    function sayHello() external view returns (string memory) {\n        return greeting;\n    }\n\n    function updateGreeting(string calldata _greeting) external {\n        greeting = _greeting;\n    }\n}\n",
  "sourcePath": "C:\\Users\\Brad\\OneDrive\\Documents\\Projects\\Web3\\greeting\\contracts\\Greeting.sol",
  "compiler": {
    "name": "solc",
    "version": "0.8.7+commit.e28d00a7.Emscripten.clang"
  },
  "schemaVersion": "3.4.3",
  "updatedAt": "2021-09-21T08:22:27.273Z",
  "networkType": "ethereum",
  "devdoc": {
    "kind": "dev",
    "methods": {},
    "version": 1
  },
  "userdoc": {
    "kind": "user",
    "methods": {},
    "version": 1
  }
}